{
  "_format": "hh-sol-artifact-1",
  "contractName": "SwapContract",
  "sourceName": "contracts/SwapContract.sol",
  "abi": [
    {
      "inputs": [
        {
          "internalType": "address",
          "name": "_tokenA",
          "type": "address"
        },
        {
          "internalType": "address",
          "name": "_tokenB",
          "type": "address"
        }
      ],
      "stateMutability": "nonpayable",
      "type": "constructor"
    },
    {
      "anonymous": false,
      "inputs": [
        {
          "indexed": true,
          "internalType": "address",
          "name": "user",
          "type": "address"
        },
        {
          "indexed": true,
          "internalType": "address",
          "name": "tokenIn",
          "type": "address"
        },
        {
          "indexed": true,
          "internalType": "address",
          "name": "tokenOut",
          "type": "address"
        },
        {
          "indexed": false,
          "internalType": "uint256",
          "name": "amountIn",
          "type": "uint256"
        },
        {
          "indexed": false,
          "internalType": "uint256",
          "name": "amountOut",
          "type": "uint256"
        }
      ],
      "name": "Swapped",
      "type": "event"
    },
    {
      "inputs": [],
      "name": "Rate",
      "outputs": [
        {
          "internalType": "uint256",
          "name": "",
          "type": "uint256"
        }
      ],
      "stateMutability": "view",
      "type": "function"
    },
    {
      "inputs": [
        {
          "internalType": "uint256",
          "name": "amountA",
          "type": "uint256"
        }
      ],
      "name": "swapAtoB",
      "outputs": [],
      "stateMutability": "nonpayable",
      "type": "function"
    },
    {
      "inputs": [
        {
          "internalType": "uint256",
          "name": "amountB",
          "type": "uint256"
        }
      ],
      "name": "swapBtoA",
      "outputs": [],
      "stateMutability": "nonpayable",
      "type": "function"
    },
    {
      "inputs": [],
      "name": "tokenA",
      "outputs": [
        {
          "internalType": "contract IERC20",
          "name": "",
          "type": "address"
        }
      ],
      "stateMutability": "view",
      "type": "function"
    },
    {
      "inputs": [],
      "name": "tokenB",
      "outputs": [
        {
          "internalType": "contract IERC20",
          "name": "",
          "type": "address"
        }
      ],
      "stateMutability": "view",
      "type": "function"
    }
  ],
  "bytecode": "0x608060405234801561001057600080fd5b50604051610f72380380610f728339818101604052810190610032919061011d565b816000806101000a81548173ffffffffffffffffffffffffffffffffffffffff021916908373ffffffffffffffffffffffffffffffffffffffff16021790555080600160006101000a81548173ffffffffffffffffffffffffffffffffffffffff021916908373ffffffffffffffffffffffffffffffffffffffff160217905550505061015d565b600080fd5b600073ffffffffffffffffffffffffffffffffffffffff82169050919050565b60006100ea826100bf565b9050919050565b6100fa816100df565b811461010557600080fd5b50565b600081519050610117816100f1565b92915050565b60008060408385031215610134576101336100ba565b5b600061014285828601610108565b925050602061015385828601610108565b9150509250929050565b610e068061016c6000396000f3fe608060405234801561001057600080fd5b50600436106100575760003560e01c80630fc63d101461005c5780631b8e94a11461007a5780635f64b55b14610098578063da0d6735146100b6578063e0441df0146100d2575b600080fd5b6100646100ee565b6040516100719190610925565b60405180910390f35b610082610112565b60405161008f9190610959565b60405180910390f35b6100a0610118565b6040516100ad9190610925565b60405180910390f35b6100d060048036038101906100cb91906109a5565b61013e565b005b6100ec60048036038101906100e791906109a5565b6104f3565b005b60008054906101000a900473ffffffffffffffffffffffffffffffffffffffff1681565b61096081565b600160009054906101000a900473ffffffffffffffffffffffffffffffffffffffff1681565b60008111610181576040517f08c379a000000000000000000000000000000000000000000000000000000000815260040161017890610a2f565b60405180910390fd5b6000610960826101919190610a7e565b905080600160009054906101000a900473ffffffffffffffffffffffffffffffffffffffff1673ffffffffffffffffffffffffffffffffffffffff166370a08231306040518263ffffffff1660e01b81526004016101ef9190610ae1565b602060405180830381865afa15801561020c573d6000803e3d6000fd5b505050506040513d601f19601f820116820180604052508101906102309190610b11565b1015610271576040517f08c379a000000000000000000000000000000000000000000000000000000000815260040161026890610b8a565b60405180910390fd5b60008054906101000a900473ffffffffffffffffffffffffffffffffffffffff1673ffffffffffffffffffffffffffffffffffffffff166323b872dd3330856040518463ffffffff1660e01b81526004016102ce93929190610baa565b6020604051808303816000875af11580156102ed573d6000803e3d6000fd5b505050506040513d601f19601f820116820180604052508101906103119190610c19565b610350576040517f08c379a000000000000000000000000000000000000000000000000000000000815260040161034790610c92565b60405180910390fd5b600160009054906101000a900473ffffffffffffffffffffffffffffffffffffffff1673ffffffffffffffffffffffffffffffffffffffff1663a9059cbb33836040518363ffffffff1660e01b81526004016103ad929190610cb2565b6020604051808303816000875af11580156103cc573d6000803e3d6000fd5b505050506040513d601f19601f820116820180604052508101906103f09190610c19565b61042f576040517f08c379a000000000000000000000000000000000000000000000000000000000815260040161042690610d27565b60405180910390fd5b600160009054906101000a900473ffffffffffffffffffffffffffffffffffffffff1673ffffffffffffffffffffffffffffffffffffffff1660008054906101000a900473ffffffffffffffffffffffffffffffffffffffff1673ffffffffffffffffffffffffffffffffffffffff163373ffffffffffffffffffffffffffffffffffffffff167f6782190c91d4a7e8ad2a867deed6ec0a970cab8ff137ae2bd4abd92b3810f4d385856040516104e7929190610d47565b60405180910390a45050565b60008111610536576040517f08c379a000000000000000000000000000000000000000000000000000000000815260040161052d90610a2f565b60405180910390fd5b6000610960826105469190610d9f565b90508060008054906101000a900473ffffffffffffffffffffffffffffffffffffffff1673ffffffffffffffffffffffffffffffffffffffff166370a08231306040518263ffffffff1660e01b81526004016105a29190610ae1565b602060405180830381865afa1580156105bf573d6000803e3d6000fd5b505050506040513d601f19601f820116820180604052508101906105e39190610b11565b1015610624576040517f08c379a000000000000000000000000000000000000000000000000000000000815260040161061b90610b8a565b60405180910390fd5b600160009054906101000a900473ffffffffffffffffffffffffffffffffffffffff1673ffffffffffffffffffffffffffffffffffffffff166323b872dd3330856040518463ffffffff1660e01b815260040161068393929190610baa565b6020604051808303816000875af11580156106a2573d6000803e3d6000fd5b505050506040513d601f19601f820116820180604052508101906106c69190610c19565b610705576040517f08c379a00000000000000000000000000000000000000000000000000000000081526004016106fc90610d27565b60405180910390fd5b60008054906101000a900473ffffffffffffffffffffffffffffffffffffffff1673ffffffffffffffffffffffffffffffffffffffff1663a9059cbb33836040518363ffffffff1660e01b8152600401610760929190610cb2565b6020604051808303816000875af115801561077f573d6000803e3d6000fd5b505050506040513d601f19601f820116820180604052508101906107a39190610c19565b6107e2576040517f08c379a00000000000000000000000000000000000000000000000000000000081526004016107d990610c92565b60405180910390fd5b60008054906101000a900473ffffffffffffffffffffffffffffffffffffffff1673ffffffffffffffffffffffffffffffffffffffff16600160009054906101000a900473ffffffffffffffffffffffffffffffffffffffff1673ffffffffffffffffffffffffffffffffffffffff163373ffffffffffffffffffffffffffffffffffffffff167f6782190c91d4a7e8ad2a867deed6ec0a970cab8ff137ae2bd4abd92b3810f4d3858560405161089a929190610d47565b60405180910390a45050565b600073ffffffffffffffffffffffffffffffffffffffff82169050919050565b6000819050919050565b60006108eb6108e66108e1846108a6565b6108c6565b6108a6565b9050919050565b60006108fd826108d0565b9050919050565b600061090f826108f2565b9050919050565b61091f81610904565b82525050565b600060208201905061093a6000830184610916565b92915050565b6000819050919050565b61095381610940565b82525050565b600060208201905061096e600083018461094a565b92915050565b600080fd5b61098281610940565b811461098d57600080fd5b50565b60008135905061099f81610979565b92915050565b6000602082840312156109bb576109ba610974565b5b60006109c984828501610990565b91505092915050565b600082825260208201905092915050565b7f416d6f756e74206d757374206265203e20300000000000000000000000000000600082015250565b6000610a196012836109d2565b9150610a24826109e3565b602082019050919050565b60006020820190508181036000830152610a4881610a0c565b9050919050565b7f4e487b7100000000000000000000000000000000000000000000000000000000600052601160045260246000fd5b6000610a8982610940565b9150610a9483610940565b9250828202610aa281610940565b91508282048414831517610ab957610ab8610a4f565b5b5092915050565b6000610acb826108a6565b9050919050565b610adb81610ac0565b82525050565b6000602082019050610af66000830184610ad2565b92915050565b600081519050610b0b81610979565b92915050565b600060208284031215610b2757610b26610974565b5b6000610b3584828501610afc565b91505092915050565b7f496e73756666696369656e74206c697175696469747900000000000000000000600082015250565b6000610b746016836109d2565b9150610b7f82610b3e565b602082019050919050565b60006020820190508181036000830152610ba381610b67565b9050919050565b6000606082019050610bbf6000830186610ad2565b610bcc6020830185610ad2565b610bd9604083018461094a565b949350505050565b60008115159050919050565b610bf681610be1565b8114610c0157600080fd5b50565b600081519050610c1381610bed565b92915050565b600060208284031215610c2f57610c2e610974565b5b6000610c3d84828501610c04565b91505092915050565b7f546f6b656e41207472616e73666572206661696c656400000000000000000000600082015250565b6000610c7c6016836109d2565b9150610c8782610c46565b602082019050919050565b60006020820190508181036000830152610cab81610c6f565b9050919050565b6000604082019050610cc76000830185610ad2565b610cd4602083018461094a565b9392505050565b7f546f6b656e42207472616e73666572206661696c656400000000000000000000600082015250565b6000610d116016836109d2565b9150610d1c82610cdb565b602082019050919050565b60006020820190508181036000830152610d4081610d04565b9050919050565b6000604082019050610d5c600083018561094a565b610d69602083018461094a565b9392505050565b7f4e487b7100000000000000000000000000000000000000000000000000000000600052601260045260246000fd5b6000610daa82610940565b9150610db583610940565b925082610dc557610dc4610d70565b5b82820490509291505056fea264697066735822122099b9aaf0065e94816bdceb2783f16143f6f1a500f64a3952c7ebabcf3428549d64736f6c634300081c0033",
  "linkReferences": {},
  "deployedLinkReferences": {}
}